:020000040800F2
:10000000381E00204501000845200008E91A0008B4
:10001000451E0008C90E0008573400080000000003
:100020000000000000000000000000004D2A000851
:100030002113000800000000612700084D2D000872
:100040005F0100085F0100085F0100085F01000810
:100050005F0100085F0100085F0100085F01000800
:100060005F01000875140008C91500085F01000849
:100070005F0100085F0100085F0100085F010008E0
:100080005F0100085F0100085F0100085F010008D0
:100090005F0100085F0100085F01000821160008E9
:1000A0005F0100085F0100085F0100085F010008B0
:1000B000B12D00085F0100085F0100085F01000822
:1000C0005F0100085F0100085F0100085F01000890
:1000D0005F010008993000082131000881310008D3
:1000E000251300085F0100085F0100085F01000898
:1000F0005F0100085F0100085F0100085F01000860
:100100005F0100085F0100085F0100085F0100084F
:100110005F0100085F0100085F0100085F0100083F
:100120005F0100085F0100085F0100085F0100082F
:10013000DFF80CD000F010FC00480047F541000843
:10014000381E00200648804706480047FEE7FEE7C5
:10015000FEE7FEE7FEE7FEE7FEE7FEE7FEE7FEE777
:10016000512D000831010008D2B201E000F8012B46
:10017000491EFBD270470022F6E710B513460A4627
:1001800004461946FFF7F0FF204610BD30B505467E
:100190002A460B4612F8010B13F8014B08B1A04296
:1001A000F8D01CB1002802D06D1CF1E7284630BD04
:1001B000F0B480EA0102D40F4200B2EB410F02D248
:1001C0000246084611464A0042D0C30DDDB2C1F3D3
:1001D000C752AD1A202D35DAC1F3160141F40002E1
:1001E00004B15242C5F1200602FA06F12A41104438
:1001F000B3EBD05F23D0C4B1012DA0EBC35009DC19
:10020000F0BC4FF0004202EAC352DBB200F500003E
:1002100000F0CFBA400000F1807000EBC350A0F1B5
:10022000807040EAD170490009E0490841EAC07194
:10023000A0EBC35000F50000400800EBC350F0BC39
:1002400000F0AEBA6142012202EB4101001BF6E769
:10025000F0BC704781F00041AAE780F00040A7E7BA
:1002600030B480EA010202F0004530F0004221F093
:10027000004013D090B1C30DD40DC2F31601C0F3EA
:100280001600E41A41F4000140F400027D3491426A
:1002900001D3641C00E04900002C02DA30BC0020CD
:1002A00070474FF400000023914201D3891A0343A1
:1002B00040084FEA4101F7D151B1914202D14FF0CC
:1002C000004105E002D24FF0010101E06FF00101B1
:1002D00003EBC450284430BC00F062BA2DE9FE4F55
:1002E000804681EA0300C00F0C46009021F00041D7
:1002F00023F00045B8EB0200A94105D24046214653
:1003000090461C460B46024623F00040104347D05F
:10031000270DC7F30A00C3F30A510290401A019057
:1003200040286BDAC3F3130040F4801B0098924618
:1003300020B10023D2EB030A63EB0B0B0198594663
:10034000C0F14002504600F0FAF906460D4650460C
:100350005946019A00F012FA10EB0800614100249E
:1003600087EA115284EAE7731A4340D0009A62B3D5
:10037000019A012A4FEA075215DC001B61EB0201CA
:100380004FF0004202EA0752CDE90042001C41F55D
:10039000801132462B4600F049FA03B0BDE8F08FD9
:1003A00040462146F9E7001B61EB0201001C41F5C4
:1003B000801300185B412018A2F5001747EB0301DA
:1003C00040EAD570B6196D4111E06D084FEA360666
:1003D00045EAC0754FEA0752001B61EB0201001CA1
:1003E00041F5801149084FEA300000195141324669
:1003F0002B4603B0BDE8F04F00F009BA0098012287
:1004000040000023D0EB020263EBE073009821462A
:100410004FEAE074B8EB000061EB0401E9E783F018
:1004200000435BE781F0004158E72DE9FE4F81EA88
:10043000030404F0004421F0004100944FF0000B4D
:1004400023F0004350EA01045ED052EA03045BD07B
:10045000C3F30A54C1F30A552C44A4F2F3340194B3
:10046000A0FB0254C1F3130141F48011C3F3130341
:1004700043F4801301FB024400FB034E840A970AF5
:1004800044EA815447EA8357A4FB076802958D0A22
:1004900005FB07854FEA932C04FB0C542705029DAE
:1004A0004FEA065847EA1637B5EB08056EEB070C1E
:1004B000870E920E47EA811742EA8312A7FB0201D8
:1004C000B6EB0B0164EB00042B0D43EA0C335E1812
:1004D00044EB1C50DA465146E7FB0201C5F3130416
:1004E0004FEA0B3343EA14534FEA0432019C43EAC8
:1004F0000603A4F10C040294009CCDE900B400F0C2
:1005000095F903B0BDE8F08F00200146F9E72DE929
:10051000F04D81EA030404F0004B21F0004514463D
:100520004FF0000A23F0004150EA050220D054EABF
:1005300001021DD0C5F30A570246C5F31303C1F3E8
:100540001300C1F30A5640F4801543F48013A7EB5F
:100550000608101BD64608F2FD3873EB050002D3DF
:1005600008F1010801E092185B41B8F1000F03DACD
:1005700000200146BDE8F08D00204FF480110646B2
:1005800084460EE0171B73EB050705D3121B63EBC4
:10059000050306434CEA010C49084FEA3000921863
:1005A0005B4150EA0107EDD152EA030012D082EA22
:1005B000040083EA0501084305D0101BAB4106D2B5
:1005C0000122002306E000224FF0004302E06FF01A
:1005D000010253101AEB06004CEB085110EB0A0015
:1005E00041EB0B01BDE8F04D00F011B9C10F80EAFD
:1005F000E0700844CA079623002100F0DAB8962379
:100600000022114600F0D5B80EB5C10F80EAE070A7
:100610000844CA07002140F233438DE80E000A4621
:100620000B4600F003F903B000BD00F0004230F0CB
:1006300000400AD0C10D01F56071C0F3160042EA16
:100640000151C2084007114370470020014670471E
:1006500001F0004330B421F0004150EA010206D01D
:100660000A0DA2F56072C1F31301002A02DC30BC4E
:1006700000207047440F44EAC104C100E01830BCB8
:1006800000EBC25000F08CB8002801DBC0F1004044
:10069000002901DBC1F1004181427047002801DBE4
:1006A000C0F10040002901DBC1F1004188427047E0
:1006B00030B50B46014600202022012409E021FA32
:1006C00002F59D4205D303FA02F5491B04FA02F52F
:1006D0002844151EA2F10102F1DC30BD2DE9F05FC6
:1006E0000546002092469B468846064681464024A1
:1006F0001BE0284641464746224600F02FF8534665
:100700005A46C01A914110D311461846224600F0AD
:1007100016F82D1A67EB01084F46224601200021EA
:1007200000F00DF817EB00094E41201EA4F1010462
:10073000DFDC484631462A464346BDE8F09F202A82
:1007400004DB203A00FA02F1002070479140C2F128
:10075000200320FA03F3194390407047202A04DB5A
:10076000203A21FA02F00021704721FA02F3D0402A
:10077000C2F120029140084319467047202A06DB47
:10078000CB17203A41FA02F043EAE07306E041FA5F
:1007900002F3D040C2F1200291400843194670474D
:1007A0000029A8BF7047401C490008BF20F0010085
:1007B000704710B4B0FA80FC00FA0CF050EA010463
:1007C00004BF10BC704749B1CCF1200421FA04F4F5
:1007D00011FA0CF118BF012121430843A3EB0C01CE
:1007E000CB1D4FEA00614FEA102042BF002010BC31
:1007F000704700EBC35010440029A4BF10BC7047E1
:10080000401C490008BF20F0010010BC704710B523
:10081000141E73F1000408DA401C41F10001921823
:100820005B411A4301D120F0010010BD2DE9F04DCC
:1008300092469B4611B1B1FA81F202E0B0FA80F221
:1008400020329046FFF77BFF04460F4640EA0A003D
:1008500041EA0B0153465A46084313D0114653EA66
:10086000010019D0C8F140025046FFF777FF054656
:100870000E46504659464246FFF761FF084305D0F1
:10088000012004E020463946BDE8F08D00200543F4
:1008900046EAE0762C4337430A986305E40AA0EB66
:1008A00008000022FD0A44EA47540A3002D500201D
:1008B0000146E9E7010510196941DDE9084500191C
:1008C0006941BDE8F04DA2E770B521F00043034354
:1008D0000CD0C1F30A550024D5EB040564EB0403E6
:1008E000D617AD1AB34102DB0020014670BD2018B7
:1008F00041EB025170BDC1F30A52C1F3130140F242
:10090000FF3341F480119A4202DA00200146704719
:1009100040F233439A42A2F2334202DC5242FFF7E2
:100920001DBFFFF70CBF000030B5041E71F10004BD
:1009300004DB4FF00044404264EB0101141E73F1EC
:10094000000405DB1C464FF00043524263EB0403F6
:10095000994208BF904230BD064C074D06E0E06862
:1009600040F0010394E8070098471034AC42F6D3F6
:10097000FFF7E2FB60700008807000082DE9F04D81
:1009800000231A461B1A8A4103DB00200146BDE8FA
:10099000F08DC1F30A52C1F3130141F480154FF0F9
:1009A000000BD10702D100186D41521E00270446EA
:1009B00040F2FF11384601EB620A3E46804602468D
:1009C00000204FF48011FFF7C9FEC2197141BB1816
:1009D00046EB0100B4EB030C75EB000C04D3E41AF6
:1009E00065EB000517460E46241908F101006D411C
:1009F00080463428E3DDF91946EB0600091BA841BF
:100A000003D24FF0FF32134601E0002213461BEBE6
:100A1000070046EB0A51BDE8F04DFFF7F8BE0000B5
:100A200010B500F013F80121014800F087F810BD5F
:100A30000024014021B1826842F00102826003E09B
:100A4000826822F0010282607047000000B591B018
:100A500001214FF4027001F0C1FE0121084601F0AE
:100A60008DFE00208DF843000120ADF8400010A954
:100A70002E4800F061FF2E4800F08EFB2D480090BC
:100A80002D48019000200290032003900020049044
:100A9000802005904000069080000790202008905C
:100AA0000002099000200A906946214800F01AFCD3
:100AB00001211F4800F064FB1E484C3800F04AF842
:100AC00001208DF8310000200E904FF460200D9031
:100AD00000200B9001208DF83C008DF830000BA910
:100AE00014484C3800F06EF8012112484C38FFF7DA
:100AF000A1FF4FF4004001F035FE0523012208213B
:100B00000C484C3800F086F80A484C3800F0DEF803
:100B100000BF08484C3800F04BF80028F9D10121FB
:100B200004484C3800F0D7F811B000BD000C01406B
:100B3000080002404C2401403400002021B18268AA
:100B400042F48072826003E0826822F480728260E4
:100B50007047000010B504461248844208D10121B4
:100B6000401501F04BFE0021601501F047FE17E033
:100B70000D48844208D10121001501F03FFE0021FB
:100B8000201501F03BFE0BE00848844208D101210A
:100B9000C80301F033FE00214FF4004001F02EFEA7
:100BA00010BD00000024014000280140003C01402D
:100BB000014600208A6802F008020AB1012000E024
:100BC0000020704730B502460020002350680F4CCB
:100BD00020400D790C6844EA052420435060906859
:100BE0000B4C2040D1E902542C434D7944EA450492
:100BF00020439060D06A20F470000C7C641EE4B244
:100C0000234340EA0350D06230BD0000FFFEF0FFF6
:100C1000FDF7F1FFF0B504460D4600200021092D37
:100C200011DDE068A5F10A0606EB4607072606FA7D
:100C300007F18843A5F10A0606EB460603FA06F11A
:100C40000843E0600CE0206905EB4507072606FA3B
:100C500007F1884305EB450603FA06F108432061D6
:100C6000072A0FDA606B561E06EB86071F2606FA68
:100C700007F18843561E06EB860605FA06F108437F
:100C8000606322E00D2A0FDA206BD61F06EB860781
:100C90001F2606FA07F18843D61F06EB860605FADB
:100CA00006F10843206310E0E06AA2F10D0606EBAE
:100CB00086071F2606FA07F18843A2F10D0606EB08
:100CC000860605FA06F10843E062F0BD816841F04E
:100CD00008018160704721B1826842F4A0028260FD
:100CE00003E0826822F4A0028260704710B500F031
:100CF00007F92EA002F0E0FC2E48008803F020FA4D
:100D00002AA002F0D9FC2B48008803F019FA2AA186
:100D10002A48FFF73BFA2A4908600EE000F0F0F895
:100D200022A002F0C9FC2348008803F009FA22A19E
:100D30002248FFF72BFA2249086021480068002862
:100D4000ECD000F0DDF81FA002F0B6FC19480088D6
:100D500003F0F6F91EA002F0AFFC1648008803F07D
:100D6000EFF91EA11548FFF711FA154908600EE0CA
:100D700000F0C6F816A002F09FFC0E48008803F0B1
:100D8000DFF916A10D48FFF701FA0D4908600C487C
:100D900000680028ECD000F0B3F814A002F08CFC3E
:100DA0000448008803F0CCF910BD000041540D0A3E
:100DB000000000002C0000204F4B0000DA0500204E
:100DC0003000002041542B4353510D0A0000000015
:100DD00041542B4350494E3F0D0A00002B435049CC
:100DE0004E3A2052454144590000000041542B51D5
:100DF0004D54434C4F53453D300D0A0010B5102162
:100E0000084800F06FFE0848007818B9202105480E
:100E100000F066FE0221034800F062FE0020034954
:100E2000087010BD000801404D000020280000207F
:100E300010B51021084800F053FE0848007818B992
:100E40002021054800F04EFE0221034800F04AFE32
:100E500001200349087010BD000801404D0000202A
:100E6000280000200EB50121084601F097FC40F251
:100E7000E730ADF804004720ADF8000069464FF0B8
:100E8000804001F0E1FF0121880701F0B1FF01225C
:100E90001146900701F0CFFF0EBD10B500F003F82A
:100EA000FFF7E0FF10BD08B51C208DF80000002002
:100EB0008DF8010003208DF8020001208DF8030059
:100EC000684601F0C7F808BD00BFFEE708B501217C
:100ED000042001F083FC0220ADF8000010208DF802
:100EE000030003208DF802006946044800F024FD49
:100EF0000221024800F0F4FD08BD00000008014096
:100F0000002004E00021064A1154411CC8B20549E2
:100F100009788842F6DB0021024A11707047000010
:100F2000DA0500207A00002010B51748007817492C
:100F3000B1F90010884219DC154800781549B1F95B
:100F40000010884212DC1448B0F90000FFF74EFB95
:100F50000446124801682046FFF796FB06D3104866
:100F6000016810480068FFF799FB0AD20E48007824
:100F7000052190FBF1F201FB120020B9FFF758FFA9
:100F800001E0FFF73BFF10BD54000020640000208B
:100F90005500002066000020680000205800002056
:100FA0006C00002060000020460000202DE9F04188
:100FB00001F09EFC114908601149124800F093F8B5
:100FC00011480078012817D110494A79097902EBB4
:100FD0000120FFF719FB064600220D4BFFF797FA99
:100FE0000446FFF735FB0B490860FF210748FFF770
:100FF000C2F8002004490870BDE8F08158000020C4
:1010000055000020540000207F0000202A1A0020F4
:1010100000408F406000002010B500241548006893
:1010200020F00F00134908600846006840F00800EF
:10103000086004E0601CC4B2012003F0A7F80E4869
:10104000006808B1642CF5DB642C01DB012010BDC5
:10105000002404E0601CC4B2012003F097F80648A5
:10106000006808B9642CF5DB642C01DB0120EEE795
:101070000020ECE7000801400001214210B50024E7
:1010800004E0601CC4B2012003F080F80D48006841
:1010900008B1642CF5DB002404E0601CC4B201201C
:1010A00003F074F80748006808B9642CF5DB2820C1
:1010B00003F06CF80348006808B1012010BD00205F
:1010C000FCE700000001214270B50024002506E085
:1010D0006006040EFFF7D2FF0443681CC5B2082D5A
:1010E000F6DB204670BD7CB505460E4600F028F8BC
:1010F000FFF792FFF8B9002405E0FFF7E5FF0DF8D0
:101100000400601CC4B2052CF7DB9DF800009DF8BC
:10111000011008449DF8021008449DF8031008448B
:101120009DF80410884208D19DF8000030709DF8A9
:101130000200287001E001207CBD0020FCE70000D7
:1011400010B50C48006820F00F000A4908600846F6
:10115000006840F003000860002007490860142080
:1011600002F0EEFF01200549C1F880011E2003F0C6
:101170000DF810BD0008014080012142000021420D
:1011800021B1026842F00102026004E002684FF6F9
:10119000FE731A400260704701684FF6FE721140FC
:1011A00001600021016041608160C1604B4988425B
:1011B00008D14A490839496841F00F01474A083ABD
:1011C00051608AE045491431884208D143490839C1
:1011D000496841F0F001414A083A51607DE03F49D9
:1011E0002831884208D13D490839496841F4706185
:1011F0003A4A083A516070E038493C31884208D197
:1012000036490839496841F47041344A083A516016
:1012100063E032495031884208D130490839496881
:1012200041F470212D4A083A516056E02B4964314F
:10123000884208D129490839496841F47001274A90
:10124000083A516049E025497831884208D123495C
:101250000839496841F07061204A083A51603CE021
:101260001F49884206D1011F096841F00F01021F82
:10127000116032E01A491431884208D11849091F17
:10128000096841F0F001164A121F116025E0144967
:101290002831884208D11249091F096841F4706158
:1012A0000F4A121F116018E00D493C31884208D1E5
:1012B0000B49091F096841F47041094A121F116066
:1012C0000BE007495031884207D10549091F0968D9
:1012D00041F47021024A121F116070470800024059
:1012E0000804024010B50022026847F6F0739A43E2
:1012F0000C6A8B6823430C6923434C6923438C6934
:101300002343CC6923434C6A23438C6A23431A4307
:101310000260CB6843600B6883604B68C36010BD9C
:10132000704700002DE9F0414FF4004000F0CEF985
:1013300000282ED04348007802F002FF424800788F
:1013400060B942480078401C40B2404908700846E5
:1013500090F90000032801DD012008703A48007868
:10136000022868D13A480078A0B93A480078401C71
:1013700040B238490870084690F90000032801DDA2
:101380000320087033480078032854D101203249E3
:10139000087050E02E48007801284CD12D48007884
:1013A00060B92E480078401E40B22C4908700846AB
:1013B00090F90000002801DA002008702548007824
:1013C00001280CD126480078401E40B224490870FC
:1013D000084690F90000002801DA002008701D4836
:1013E000007802280CD11F480088401E00B21D4919
:1013F00008800846B0F90000002801DA00200880C3
:1014000014480078032816D117480068FFF70DF933
:101410000646164A164BFFF702F80446FFF718F97E
:1014200011490860002110480068FFF72DF902D229
:1014300000200D4908604FF4004000F041F9BDE87C
:10144000F0810000440000204E0000204F000020EA
:1014500051000020500000205300002064000020B4
:1014600066000020680000206C0000207B14AE475E
:10147000E17A843F2DE9F041082000F027F90028A7
:101480002ED04448007802F05BFE4348007860B9F3
:1014900042480078401E40B240490870084690F922
:1014A0000000012801DA032008703B480078022878
:1014B0006AD13B480078A0B93A480078401E40B253
:1014C00038490870084690F90000002801DA002029
:1014D000087034480078022856D10120324908703B
:1014E00052E02F48007801284ED12E48007860B98C
:1014F0002E480078401C40B22C490870084690F9EC
:101500000000632801DD6320087026480078012868
:101510000CD127480078401C40B225490870084685
:1015200090F90000632801DD632008701D480078F1
:1015300002280ED11F480088401C00B21D490880B7
:101540000846B0F90000B0F57A7F02DB40F2E730E0
:10155000088014480078032816D117480068FFF760
:1015600064F80646154A164BFEF7B8FE0446FFF728
:101570006FF81149086013490F480068FFF78EF8AB
:1015800002D210480C490860082000F099F8BDE824
:10159000F0810000440000204E0000204F00002099
:1015A0005100002050000020530000206400002063
:1015B00066000020680000206C0000207B14AE470D
:1015C000E17A843F0000404010B5102000F07EF822
:1015D000D0B10F48007802F0B3FD0E480078012822
:1015E00005D100200B49087001200B4908700948FB
:1015F0000078022808D10120084908700020054918
:101600000870012004490870102000F059F810BD3E
:10161000440000204E000020520000205100002015
:1016200010B5202000F052F8002839D01E4800786C
:1016300002F086FD1D48007800BB01201C4908709F
:101640001C480078012801D1184908701948007811
:10165000022801D1154908701648007803280DD1D9
:101660001548007818B901201349087006E012489F
:101670000078012802D100200F4908700B4800783B
:1016800002280DD10D48007818B901200B490870C7
:1016900006E00A480078012802D1002007490870B6
:1016A000202000F00DF810BD440000204E00002066
:1016B000520000204F0000204D000020510000206B
:1016C00001490860704700001404014001460020F1
:1016D0000022074B1B6803EA0102054B14331B6809
:1016E0000B4013B10AB1012000E000207047000058
:1016F00000040140002123498279002A3AD00A4699
:10170000126803689A430B461A600A1D1268036840
:101710009A430B1D1A60027911440A6803681A4340
:101720000A60184A0832126803689A43154B083356
:101730001A601A1D126803689A43124B0C331A6020
:101740004279102A0ED11A1F126803681A430D4BF2
:1017500008331A601A1D126803681A43094B0C33C8
:101760001A600DE00749427911440A6803681A4378
:101770000A6005E0027911440A6803689A430A6026
:1017800070470000000401400EB500F081F801210F
:101790000D2001F023F801213A4800F059F94FF4E7
:1017A0000040ADF8080048208DF80B0002A936482B
:1017B00000F0C2F80F21002000F09EF84FF4004026
:1017C000009001208DF8060000208DF8040008200C
:1017D0008DF805006846FFF78DFF0820ADF808007A
:1017E00048208DF80B0002A9284800F0A5F8032135
:1017F000012000F081F80820009001208DF80600FB
:1018000000208DF8040008208DF805006846FFF7D9
:1018100071FF1020ADF8080048208DF80B0002A9D8
:101820001A4800F089F80421012000F065F8102022
:10183000009001208DF8060000208DF8040008209B
:101840008DF805006846FFF755FF2020ADF8080029
:1018500048208DF80B0002A90C4800F06DF8052116
:10186000012000F049F82020009001208DF80600AA
:1018700000208DF8040008208DF805006846FFF769
:1018800039FF0EBD0002300000080140000C01408D
:1018900008B528208DF8000001208DF803008DF890
:1018A00001008DF80200684600F0D4FB09208DF895
:1018B0000000684600F0CEFB0A208DF80000684664
:1018C00000F0C8FB17208DF80000684600F0C2FB4E
:1018D00008BD10B502460020521C002305E0147814
:1018E0000444E0B2521C5C1CE3B28C1E9C42F6DC49
:1018F000C443641CE0B210BD30B500228B071C0F3E
:101900000F2303FA04F20B4B8C1053F8243093434B
:10191000084C8D1044F8253023468C1053F82430A1
:101920008C07240F00FA04F42343024C8D1044F872
:10193000253030BD080001402DE9F0410246002568
:101940000026002000230024002791F803C00CF09B
:101950000F0591F803C00CF0100CBCF1000F03D080
:1019600091F802C04CEA050591F800C0BCF1000FE7
:1019700031D0146800202BE04FF0010C0CFA00F37A
:10198000B1F800C00CEA03069E4220D183004FF05C
:101990000F0C0CFA03F7BC4305FA03FC4CEA0404F1
:1019A00091F803C0BCF1280F06D14FF0010C0CFADE
:1019B00000FCC2F814C00AE091F803C0BCF1480F63
:1019C00005D14FF0010C0CFA00FCC2F810C0401C0D
:1019D0000828D1D31460B1F800C0BCF1FF0F34DD8A
:1019E000546800202EE000F1080C4FF0010808FABE
:1019F0000CF3B1F800C00CEA03069E4221D183002B
:101A00004FF00F0C0CFA03F7BC4305FA03FC4CEA49
:101A1000040491F803C0BCF1280F05D100F1080CB3
:101A200008FA0CF8C2F8148091F803C0BCF1480F12
:101A300007D100F1080C4FF0010808FA0CF8C2F8C1
:101A40001080401C0828CED35460BDE8F08100000F
:101A5000F0B50A46002300240021002500F00046CE
:101A6000B6F1004F02D11D4EF16901E01B4E7168C5
:101A7000C0F3034583B200F44016B6F5401F08D109
:101A800021F07061154E766826F07066134F7E6007
:101A900012E000F48016B6F5801F06D1032606FA80
:101AA00005F4A14341F0706106E0460D360103FAEA
:101AB00006F6B14341F0706122B1460D360103FADA
:101AC00006F6314300F00046B6F1004F02D1034E56
:101AD000F16101E0014E7160F0BD000000000140C5
:101AE000416170470161704700BFFEE710B580217A
:101AF0000A48FFF7F7FF40210848FFF7F3FF00F01F
:101B000037F880210548FFF7EBFF00F031F840215E
:101B10000248FFF7E5FF00F02BF810BD000C014074
:101B200010B580210648FFF7DBFF40210448FFF78E
:101B3000D9FF00F01DF880210148FFF7D3FF10BD49
:101B4000000C014010B580210848FFF7CBFF00F0E2
:101B50000FF840210548FFF7C5FF00F009F84021C4
:101B60000248FFF7BDFF00F003F810BD000C014074
:101B7000032000BF011EA0F10102D0B2FAD17047CC
:101B800008B50121242000F029FE1020ADF8000046
:101B90008DF8030003208DF8020069460948FFF71D
:101BA000CBFE0420ADF8000069460748FFF7C4FEED
:101BB00010210448FFF796FF04210348FFF792FF26
:101BC00008BD0000000801400014014010B5FFF7F7
:101BD00097F94AA001F070FD4C48008802F0B0FA75
:101BE0004BA14E48FEF7D2FA4D4908600EE0FFF7D0
:101BF00087F942A001F060FD4448008802F0A0FA95
:101C000043A14648FEF7C2FA4549086044480068C7
:101C10000028ECD0FFF774F942A34BA24CA14FA0CF
:101C200001F04AFD3948008802F08AFA55A13B4884
:101C3000FEF7ACFA3A49086005E052A13748FEF7D2
:101C4000A5FA37490860364800680028F5D0FFF744
:101C500057F94DA001F030FD2C48008802F070FAD1
:101C600053A12E48FEF792FA2D49086009E0274853
:101C7000008802F065FA4EA12848FEF787FA284945
:101C80000860274800680028F1D0FFF739F94CA018
:101C900001F012FD1D48008802F052FA4EA11F48C3
:101CA000FEF774FA1E49086005E04BA11B48FEF7D9
:101CB0006DFA1B4908601A4800680028F5D0FFF744
:101CC0001FF949A155A001F0F7FC1048008802F067
:101CD00037FA58A11148FEF759FA1149086005E092
:101CE00054A10E48FEF752FA0D4908600C480068EE
:101CF0000028F5D0FFF704F910BD000041542B4334
:101D00004750414444523D310D0A00002C00002050
:101D10002B434750414444523A000000DA0500206A
:101D200030000020633539626665633161313231DC
:101D3000303436333761373763643936323136669B
:101D400038383037000000006169725F30310000C0
:101D5000613134556B336C47546A450041542B5103
:101D60004D544346473D414C49415554482C302C35
:101D7000222573222C222573222C222573220D0A60
:101D8000000000004F4B000041542B514D544F5068
:101D9000454E3D302C223133392E3139362E3133F8
:101DA000352E313335222C313838330D0A000000FE
:101DB0002B514D544F50454E3A20302C30000000EE
:101DC00041542B514D54434F4E4E3D302C226169AE
:101DD000725F3031220D0A002B514D54434F4E4E4D
:101DE0003A20302C302C30002F7379732F6131342E
:101DF000556B336C47546A452F6169725F30312FE0
:101E00007468696E672F736572766963652F707287
:101E10006F70657274792F736574000041542B5193
:101E20004D545355423D302C312C222573222C30F9
:101E30000D0A00002B514D545355423A20302C319D
:101E40002C30000000BFFEE708B578480078012874
:101E500004D100F041F900207449087001201023DA
:101E6000132200210090302000F022FB01201023DB
:101E7000142200210090402000F01AFB01201023C2
:101E8000152219460090002000F012FB01201023BB
:101E9000162219460090184600F00AFB0120102374
:101EA000172219460090202000F002FB0120102389
:101EB000182219460090302000F0FAFA0120102371
:101EC0000F2220210090002000F0F2FA01201023C0
:101ED0001A4620210090184600F0EAFA012010234B
:101EE000112220210090084600F0E2FA0120102380
:101EF000122220210090302000F0DAFA0120102375
:101F0000192230210090002000F0D2FA0120102385
:101F10001A2230210090184600F0CAFA012010233E
:101F200043A230210090202000F044FB0120102328
:101F30001D2230210090672000F0BAFA00F0E6F987
:101F40003C480078012819D110233BA21946009083
:101F5000772000F02FFB0120102338A220210090D1
:101F6000772000F027FB0120102334A230210090BD
:101F7000772000F01FFB00F0C9F93CE02D48007805
:101F800002281AD1012010232CA219460090772094
:101F900000F010FB0120102327A2202100907720C1
:101FA00000F008FB0120102324A2302100907720AC
:101FB00000F000FB00F0AAF91DE01E48007803289D
:101FC00019D1012010231DA219460090772000F09E
:101FD000F1FA0120102319A220210090772000F0AF
:101FE000E9FA0120102314A230210090772000F09C
:101FF000E1FA00F08BF91248007848B9012010236B
:102000001B2230210090532000F052FA00F07EF99C
:102010000B480078012808D110231C2230210090A1
:10202000532000F045FA00F071F908BD520000207D
:102030003A0000004F0000203C000000200000009B
:102040004D000020704710B54FF4A06000F03AF842
:1020500010BD000070B5002100230F22C47804B326
:10206000154C246804F4E064C4F5E064210AC1F16D
:102070000403CA40447804FA03F1847814402143ED
:1020800009010E4C0678A155047804F01F050124BF
:10209000AC4005786D11AD0005F1E025C5F80041B3
:1020A00009E0047804F01F050124AC40044D0678D3
:1020B000761145F8264070BD0CED00E000E400E02C
:1020C00080E100E002490143024A116070470000CC
:1020D0000000FA050CED00E070B500240CE00025CE
:1020E00006E00020074901EBC5010855681CC5B290
:1020F000802DF6DB601CC4B2082CF0DB00F006F982
:1021000070BD00008800002010B504461CB90021F5
:10211000A62000F074FA012C03D10021A72000F0C2
:102120006EFA10BD10B504463CB90021C82000F07D
:1021300066FA0021A12000F062FA012C07D10021EB
:10214000C02000F05CFA0021A02000F058FA10BD79
:10215000F0B514460B46CF1701EB5777C7F3C7020C
:10216000CF1701EB5777FF10A1EBC707FEB2012392
:10217000B340DDB24CB1134B03EBC0039B5C2B436C
:10218000104F07EBC007BB541AE00E4B03EBC00324
:102190009B5CDB430B4F07EBC007BB54094B03EBC6
:1021A000C0039B5C2B43074F07EBC007BB54054B99
:1021B00003EBC0039B5CDB43024F07EBC007BB5440
:1021C000F0BD00008800002008B50121082000F0C3
:1021D00005FBC020ADF8000014208DF8030003209B
:1021E0008DF8020069464748FFF7A6FBC021454825
:1021F000FFF778FC0420ADF8000010208DF80300F4
:1022000003208DF8020069463F48FFF795FB042143
:102210003D48FFF767FC04213B48FFF761FCC820FD
:1022200001F08EFF04213848FFF75CFC0021AE204E
:1022300000F0E5F90021084600F0E1F90021102046
:1022400000F0DDF90021402000F0D9F900218120C3
:1022500000F0D5F90021CF2000F0D1F90021A12014
:1022600000F0CDF90021C82000F0C9F90021A62016
:1022700000F0C5F90021A82000F0C1F900213F209D
:1022800000F0BDF90021D32000F0B9F90021084683
:1022900000F0B5F90021D52000F0B1F9002180202F
:1022A00000F0ADF90021D92000F0A9F90021F120BA
:1022B00000F0A5F90021DA2000F0A1F90021122098
:1022C00000F09DF90021DB2000F099F90021302079
:1022D00000F095F90021202000F091F90021022062
:1022E00000F08DF900218D2000F089F900211420E3
:1022F00000F085F9FFF7F0FE0021AF2000F07FF934
:1023000008BD0000000C01400008014070B5002429
:102310002BE004F1B001C8B2002100F070F90021F7
:10232000084600F06CF90021102000F068F9FFF772
:10233000DDFB782000F0ECFBFFF704FC402000F010
:10234000E7FBFFF7FFFB002509E0094901EBC501A9
:10235000085D00F0DDFBFFF7F5FB681CC5B2802DC2
:10236000F3DBFFF7DDFB601CC4B2082CD1DB70BDD2
:10237000880000202DE9FE4F0746884692461C46FD
:102380000197CDF80080082C02D14FF006091FE01C
:102390002046E31704EB5373DB1021464FEAE47C3D
:1023A00004EB5C7C4FEAEC0CA4EBCC0CBCF1000F12
:1023B00002D04FF0010C01E04FF0000C63442246C4
:1023C00004EBD27C4FEA6C0C03FB0CF303F0FF0927
:1023D000AAF12000C6B200255EE0082C07D106EB6A
:1023E00046002F4901EB400010F805B01DE00C2C11
:1023F00007D106EB46002B4901EB800010F805B031
:1024000013E0102C05D1284800EB061010F805B099
:102410000BE0182C07D106EBC600244901EB800025
:1024200010F805B001E0BDE8FE8F002002901CE02E
:102430000BF0010028B1414638460C9AFFF788FEA0
:1024400009E00C9808B9012000E00020024641464E
:102450003846FFF77DFE4FEA6B0B08F1010000F0F4
:10246000FF080298401CC0B2029002980828DFDBE7
:10247000781CC7B2082C0BD004EBD4714A10019918
:10248000791A8A4204D1019F00980830C0B20090A6
:10249000DDF80080681CC5B24D459EDB00BFC2E779
:1024A000C44E0008EC50000860550008505B00085E
:1024B0002DE9FC4F0746884616461C46BB46CDF81C
:1024C00004802046E21704EB5272D2102146E31733
:1024D00004EB5373DB10A4EBC3030BB1012300E047
:1024E00000231A44624392B20092002555E0102C5A
:1024F00005D12C4800EB461010F805A01BE0182C65
:1025000007D106EBC600284901EBC00010F805A072
:1025100011E0202C05D1254800EBC61010F805A0CD
:1025200009E0402C05D1224800EB462010F805A018
:1025300001E0BDE8FC8F4FF000091CE00AF001004B
:1025400028B1414638460B9AFFF702FE09E00B9886
:1025500008B9012000E00020024641463846FFF756
:10256000F7FD4FEA6A0A08F1010000F0FF0809F1DF
:10257000010000F0FF09B9F1080FDFDB781CC7B2DA
:10258000A7EB0B00A04204D15F4601980830C0B20F
:102590000190DDF80480681C85B200988542A6DBB6
:1025A00000BFC6E7AC6800086C6C0008B46C00089B
:1025B000346D00082DE9F84106460F4614461D46C5
:1025C000DDF81C8013E0CDF8008022782B463946D8
:1025D0003046FFF7CFFE082D02D1B01DC6B205E090
:1025E000284605EBD07106EB6101CEB2641C207861
:1025F000202802DB20787E28E5DDBDE8F88170B573
:1026000005460C46FFF772FA782000F081FAFFF7D2
:1026100099FA1CB1402000F07BFA02E0002000F0A3
:1026200077FAFFF78FFA284600F072FAFFF78AFA76
:10263000FFF776FA70BD000008B5012010230022D4
:10264000114600901046FFF733FF01201023024689
:10265000002100901846FFF72BFF012010230222D3
:10266000002100902020FFF723FF012010230322E8
:10267000002100903020FFF71BFF012010230422CF
:10268000002100904020FFF713FF012010230522B6
:10269000002100905020FFF70BFF0120102306229D
:1026A000002100906020FFF703FF01201023072284
:1026B000002100907020FFF7FBFEFFF727FE0120AE
:1026C000102319A2142100900020FFF773FFFFF7D9
:1026D0001DFEFEF70BFB0120102316A21421009013
:1026E0000020FFF767FFFFF711FE0120102314A25F
:1026F000282100900020FFF75DFFFFF707FEFFF79E
:1027000065FA0120102312A2282100900020FFF773
:1027100051FFFFF7FBFD4FF4FA7001F011FDFFF7D9
:10272000DBFCFFF7F3FD08BD415420696E6974209E
:102730002E2E2E00415420696E6974204F4B2000CC
:102740004D51545420696E6974202E2E2E000000C5
:102750004D51545420696E6974204F4B2000000085
:102760007047000001460020034A506820F44040B2
:1027700008435060704700000010024029B1064A2B
:1027800052690243044B5A6104E0034A526982438E
:10279000014B5A61704700000010024029B1064AFF
:1027A000D2690243044BDA6104E0034AD2698243EE
:1027B000014BDA61704700000010024029B1064A5F
:1027C00012690243044B1A6104E0034A126982430E
:1027D000014B1A61704700000010024029B1064AFF
:1027E00092690243044B9A6104E0034A926982436E
:1027F000014B9A61704700000010024029B1064A5F
:10280000D2680243044BDA6004E0034AD268824390
:10281000014BDA60704700000010024030B5002123
:102820000022002400232D4D6D6805F00C0121B11C
:10283000042905D0082923D105E0294D056022E0AF
:10284000274D05601FE0254D6D6805F47012234D7E
:102850006D6805F48034022505EB92421CB9214DC8
:10286000554305600BE01D4D6D6805F400351DB145
:102870001C4D5543056002E0194D5543056002E0CB
:10288000174D056000BF00BF144D6D6805F0F001E5
:102890000909154D6B5C0568DD4045600F4D6D689D
:1028A00005F4E061090A104D6B5C4568DD40856008
:1028B0000A4D6D6805F46051C90A0B4D6B5C4568A3
:1028C000DD40C560054D6D6805F44041890B074D3D
:1028D0006B5CC568B5FBF3F5056130BD00100240C7
:1028E00000127A0000093D0014000020240000209E
:1028F0002DE9F04F87B020490888FDF780FE81461A
:102900004FF08B41FDF7ACFC8046FDF78EFE06468E
:102910004FF06632194BFDF788FD0446FDF798FE2F
:10292000824651461648FDF795FC0190FDF77DFE65
:10293000CDE902015046FDF778FE124A124BCDE96F
:102940000001FDF772FD0646DDE90223FDF7DFFD1C
:1029500080460E4A0E4B01F099FC00220D4BCDE94A
:102960000401FDF7D4FD0446FDF772FE8346584688
:1029700007B0BDE8F08F00003400002066660A4012
:102980000000A040713D0AD7A370414004734B7012
:1029900001FA084000408F4010B516A11848FDF715
:1029A000F5FB184908600846006858B100214FF04F
:1029B000804000F023FA01201349087001218007AC
:1029C00000F01CFA11A10E48FDF7E0FB0D4908606C
:1029D0000846006858B100214FF0804000F00EFA20
:1029E0000020094908700121880700F007FAFEF766
:1029F00087FA10BD2273776368223A310000000025
:102A0000DA050020300000204C000020227377639C
:102A100068223A300000000008B501210420FFF7C9
:102A2000DDFE2020ADF8000010208DF8030003200B
:102A30008DF8020069460448FEF77EFF2021024817
:102A4000FFF74EF808BD0000000801407047000085
:102A50002DE9F04F8DB00446894692469B461A9860
:102A6000FDF7E3FD05460E465846FDF7DEFD074639
:102A700088465046FDF7D9FDCDE90856CDE90A0153
:102A8000DDE91623DDE91810CDE90278CDE904234C
:102A9000CDE90610DDE90A014B462246CDE90001E9
:102AA00007A1144800F008FE13A11748FDF76EFBBC
:102AB00016490860FEF724FA0DB0BDE8F08F00005B
:102AC0002F7379732F613134556B336C47546A45DA
:102AD0002F6169725F30312F7468696E672F657678
:102AE000656E742F70726F70657274792F706F736A
:102AF00074000000C86F00082B514D545055423AE5
:102B000020302C312C300000DA050020300000206D
:102B100070B5044600251BE004F0800020B1802140
:102B20000D48FEF7DFFF03E080210B48FEF7D8FFDA
:102B3000FFF71EF840210848FEF7D4FFFFF718F80A
:102B400040210548FEF7CCFF6006040E681CC5B2A4
:102B5000082DE1DB70BD0000000C014000B585B020
:102B600017480078082828D100201549087000214E
:102B70004FF0804000F042F9124803681248008884
:102B800080B212490978124A1278CDE90303CDE9DF
:102B900001211048007800900F4803680F48026830
:102BA0000F4801780F480078FFF752FF642001F0CA
:102BB000C7FA0121880700F021F905B000BD000027
:102BC000460000206C000020680000206600002005
:102BD0006400002028000020600000205800002031
:102BE000550000205400002010B500F001F810BD81
:102BF0000CB50020019000903348006840F480300C
:102C00003149086000BF3048006800F4003000908F
:102C10000198401C0190009818B90198B0F5A06F78
:102C2000F1D12948006800F4003010B10120009073
:102C300001E0002000900098012843D1234800685B
:102C400040F01000214908600846006820F00300A9
:102C500008600846006840F0020008601A484068B2
:102C6000194948600846406848600846406840F492
:102C7000806048600846406820F47C104860084640
:102C8000406840F4E81048600846006840F08070F2
:102C9000086000BF0C48006800F000700028F9D000
:102CA0000948406820F0030007494860084640682A
:102CB00040F00200486000BF0348406800F00C008C
:102CC0000828F9D10CBD000000100240002002408D
:102CD00010B510480078012814D104210E48FEF7E1
:102CE000FFFE0E480078012804D120210C48FEF791
:102CF000F9FE0EE00948007858B920210848FEF78F
:102D0000EFFE06E00348007818B904210248FEF7F8
:102D1000E9FE10BD4D000020001401404C000020D1
:102D200000080140042808D14FF0E021096941F072
:102D300004014FF0E022116107E04FF0E021096942
:102D400021F004014FF0E02211617047704700004C
:102D500010B51348006840F00100114908600846AA
:102D60004068104908400E494860084600680E490E
:102D700008400B4908600846006820F4802008607D
:102D80000846406820F4FE0048604FF41F00886049
:102D9000FFF72AFF4FF000600449086010BD0000F3
:102DA000001002400000FFF8FFFFF6FE08ED00E013
:102DB00010B50121880700F02DF898B10A48007875
:102DC000401C0949087008460078C82806D1002030
:102DD000087006480078401C0449087001218807E3
:102DE00000F009F810BD000045000020460000205A
:102DF000CA4302827047CA430282704721B10288E7
:102E000042F00102028004E002884FF6FE731A408D
:102E10000280704730B50246002000230024158A46
:102E200005EA0103958905EA010413B10CB10120FB
:102E300000E0002030BD1AB183890B43838102E09A
:102E400083898B4383817047002202881D4B9842FF
:102E50000ED01D4B98420BD0B0F1804F08D01B4BC9
:102E6000984205D01A4B984202D01A4B984204D18E
:102E70004FF68F731A404B881A43174B984207D06E
:102E8000164B984204D04FF6FF431A40CB881A43A2
:102E900002808B8883850B8803850A4B98420BD070
:102EA000094B984208D00E4B984205D00D4B9842E2
:102EB00002D00D4B984201D10B7A03860123838205
:102EC00070470000002C0140003401400004004025
:102ED00000080040000C00400010004000140040BA
:102EE00000400140004401400048014038B54F48CF
:102EF0000078012804D1FFF7EFF800204B49087053
:102F0000012010231522002100902020FFF7D0FA85
:102F1000012010231622002100903020FFF7C8FA6C
:102F2000012010231722002100904020FFF7C0FA53
:102F3000012010231822002100905020FFF7B8FA3A
:102F400001200C233AA2112100900020FFF732FB50
:102F500001200C2338A2112100902B20FFF72AFB1F
:102F600001200C2335A2112100904820FFF722FBFD
:102F700001200C2333A2112100907920FFF71AFBC6
:102F800001200C2330A21E2100900020FFF712FB2D
:102F900001200C232EA22B2100900020FFF70AFB1A
:102FA0002D4802782DA12E4800F096FB01200C231D
:102FB0002B4A112100901E20FFF7FCFA29480278C5
:102FC00026A1274800F088FB01200C23244A112168
:102FD00000906620FFF7EEFA23480068FDF725FB16
:102FE000044622460B4621A11D4800F075FB012036
:102FF0000C231B4A1E2100901920FFF7DBFA204802
:103000000068FDF712FB044622460B461DA114483A
:1030100000F062FB01200C23114A2B2100901E209E
:10302000FFF7C8FAFFF772F938BD00005200002020
:1030300054656D703A00000060433B0048756D694F
:103040003A000000250000004743433A000000001A
:103050004348324F3A00000054000020256400002D
:1030600008050020550000205800002025302E3291
:10307000662050504D2020202020202020000000DD
:103080006000002025302E34662050504D20202036
:10309000202020202000000010B540F225511D48BE
:1030A00000F014F910B31B4800F0CCF9C4B21A4870
:1030B000008800F40040C8B91748008800F4804038
:1030C00060B10A2C03D000201349088020E0124888
:1030D000008840F400401049088019E00D2C06D10A
:1030E0000D48008840F480400B49088010E00A48F1
:1030F0000088C0F30D0009490C5407480088401CA3
:103100000549088008460088C72801DD002008809E
:1031100010BD00000038014078000020120500209A
:1031200010B540F22551124800F0D0F8F8B110481F
:1031300000F088F9C4B20E4800F084F9C1B20D481D
:1031400002780078401C0B4B18700B4881541846CD
:103150000078C82802DD002019460870214607487B
:1031600000F075F940F22551014800F045F810BD16
:10317000004400407A000020DA05002000380140B9
:1031800010B540F22551184800F0A0F801282AD1C6
:1031900040F22551144800F02FF8134800F052F97E
:1031A000C1B2124802680068401C104B18601048F9
:1031B00081540078FF2804D00020194608600C498B
:1031C00008700A48006809280DD109210848FEF74F
:1031D00080FB0749097A884202D10120054908701D
:1031E00000200249086010BD004800408000002017
:1031F0002A1A00207F00002010B50022002340F68C
:103200006A14A14200D100BF0A1201249440A3B263
:10321000DC43048010BD21B1828942F400528281D6
:1032200004E082894DF6FF731A40828170470000E6
:1032300010B504462048844209D101218803FFF7D4
:10324000DDFA00214FF48040FFF7D8FA32E01B4846
:10325000844209D101214804FFF7B0FA00214FF45C
:103260000030FFF7ABFA25E01548844209D101216F
:103270008804FFF7A3FA00214FF48020FFF79EFA9D
:1032800018E01048844209D10121C804FFF796FADA
:1032900000214FF40020FFF791FA0BE00A48844226
:1032A00008D101210805FFF789FA00214FF48010A9
:1032B000FFF784FA10BD00000038014000440040D0
:1032C00000480040004C00400050004070B50246ED
:1032D000002400230025002040F66A16B14200D1E8
:1032E00000BFC1F3421501F01F03012606FA03F3E4
:1032F000012D02D19689334006E0022D02D1168AB3
:10330000334001E0968A33400C12012606FA04F499
:103310001688344013B10CB1012000E0002070BDCC
:10332000F0B50346002400260025002040F66A1769
:10333000B94200D100BF1846C1F3421401F01F0684
:10334000012707FA06F5012C01D10C3004E0022C0C
:1033500001D1103000E014301AB107682F43076024
:1033600002E00768AF430760F0BD00002DE9F047B9
:1033700086B005460E460024A24600BFA14600279F
:10338000B08900B100BF2F462C8A4CF6FF70044074
:10339000F08804432C82AC894EF6F3100440B088C8
:1033A00031890843718908430443AC81AC8A4FF6E4
:1033B000FF400440B0890443AC8201A8FFF72EFA15
:1033C0001F48874202D1DDF810A001E0DDF80CA013
:1033D000A88900F4004040B10AEBCA0000EB0A10D3
:1033E00031684900B0FBF1F807E00AEBCA0000EBD6
:1033F0000A1031688900B0FBF1F86420B8FBF0F0E6
:1034000004012009642101FB1089A88900F400400F
:1034100040B1322000EBC900B0FBF1F000F0070032
:10342000044308E0322000EB09106421B0FBF1F006
:1034300000F00F0004432C8106B0BDE8F0870000C7
:103440000038014001468888C0F308007047C1F386
:1034500008028280704700BFFEE7000038B5804850
:103460000078012804D1FEF737FE00207C4908705F
:103470007C480078012804D1FEF72EFE002079490F
:103480000870012010230F22002100902020FFF758
:103490000FF8012010231A46002100903020FFF77A
:1034A00007F8012010231122002100904020FEF790
:1034B000FFFF012010231222002100905020FEF770
:1034C000F7FF6948007803287ED00120102367A207
:1034D000122100900020FFF76DF80120102365A253
:1034E000222100900020FFF765F80120102363A23D
:1034F000322100900020FFF75DF8FEF707FF5A48E1
:103500000078C0B9012010235EA2302100907720FE
:10351000FFF750F8012010235AA2202100907720B5
:10352000FFF748F80120102357A219460090772092
:10353000FFF740F837E04C480078012817D11023F6
:1035400050A2194600907720FFF734F8012010238D
:103550004CA2302100907720FFF72CF80120102397
:1035600049A2202100907720FFF724F81BE03E4875
:103570000078022817D10120102342A220210090B8
:103580007720FFF717F8012010233EA2194600907C
:103590007720FFF70FF8012010233BA23021009085
:1035A0007720FFF707F83948B0F9002038A13948EB
:1035B00000F092F801201023364A19460090662048
:1035C000FEF7F8FF344800E01FE0B0F9002030A11A
:1035D000304800F081F8012010232E4A202100906D
:1035E0006620FEF7E7FF2D48B0F900202CA12948FE
:1035F00000F072F801201023264A302100905E204E
:10360000FEF7D8FFFEF782FE28E01748007803286F
:1036100024D10120102323A2122100900020FEF7C4
:10362000C9FF0120102318A2194600907720FEF749
:10363000C1FF1E480068FCF7F8FF044622460B460F
:103640001BA1144800F048F801201023114A194624
:1036500000905720FEF7AEFFFEF758FE38BD000081
:1036600052000020530000205000002054656D706F
:103670003A00000048756D693A0000004743433A3C
:1036800000000000200000003C000000640000205A
:103690002532640008050020660000206800002034
:1036A000253364004348324F3A0000006C0000208C
:1036B00025302E32660000000FB4054B10B503A96B
:1036C000044A029800F07EF910BC5DF814FB00007B
:1036D000D9410008740000200FB4084B10B504A9AC
:1036E00002AA039800F06EF9044602A9002000F037
:1036F00000FD204610BC5DF814FB0000F3400008FC
:10370000490050EAC12018BF04204A0D18BF40F0FC
:10371000010040F2FF72B2EB515F08BF40F00200BF
:10372000012808BF052070472DE9F0414F1E00EB2E
:10373000C7010446D1E9000115461E4637F00602CE
:103740000DD02A463346FCF770FE7F1E04EBC703FC
:10375000D3E90023FCF7C2FD37F00602F1D1022FB6
:1037600025D0042F13D0062F18BFBDE8F0812A46BC
:103770003346FCF75AFED4E90A23FCF7AFFD2A468C
:103780003346FCF752FED4E90823FCF7A7FD2A468E
:103790003346FCF74AFED4E90623FCF79FFD2A4690
:1037A0003346FCF742FED4E90423FCF797FD2A4692
:1037B0003346FCF73AFED4E90223FCF78FFD2A4694
:1037C0003346FCF732FED4E90023BDE8F041FCF7B4
:1037D00085BD00000022134610460149FCF797BE44
:1037E0000000F03FFCF77ABD002213461046114658
:1037F000FCF78DBE40F2013200204FF0E041FDF7B2
:1038000063B80000024A00201107FDF75DB8000010
:1038100001FDFFFF02E008C8121F08C1002AFAD10B
:1038200070477047002001E001C1121F002AFBD140
:1038300070470000014908607047000084000020C4
:103840002DE9FF5F82B00021DDE90430020DDDF8D3
:1038500040B0034318D044F61050A2F2FF32424366
:103860001514119801281FD0A5EB0B00401C5FEA2E
:10387000000A4FF000064E4FDFF83891B046504630
:1038800015D5CAF1000413E0119801244AA30128B8
:1038900001D16FEA0B010298119AC0E90031C0E929
:1038A000024206B0BDE8F09FCBF10000DFE704461E
:1038B0000021404A491842EB0450CDE9001012E0C3
:1038C000E00707D032463B4640464946FCF7ADFD8F
:1038D0008046894632463B4610461946FCF7A5FD10
:1038E00006460F466410002CEAD1DDE90401DDE94B
:1038F0000023BAF1000F06DAFCF797FD42464B466B
:10390000FCF793FD05E0FCF702FE42464B46FCF750
:10391000FEFD04460E460022284BFDF705F803D8AD
:103920004FF0FF30014607E00022254B204631468C
:10393000FCF7D4FCFCF7DFFF102409E0002C0ADBC5
:103940000A220023FCF7CAFE039B30321A55641E7C
:1039500050EA0102F2D1641C039AC4F11103144429
:10396000119A012A03D0012208430DD10AE008432D
:1039700004D000204FF0110B119072E7A3EB0B0560
:103980006D1E0DE05B4504DD4FF0000205F1010501
:1039900004E003DA4FF00002A5F10105002AECD0A3
:1039A00002981199C0E90231C0E9004579E70000A9
:1039B000000014400000F03F300000000000F04321
:1039C0000000E03F2DE9FF4F95B09B468946064633
:1039D00000250FE2252877D100242746F84A012147
:1039E000059400E0044316F8013F203B01FA03F080
:1039F0001042F7D130782A2811D06FF02F03307899
:103A0000A0F13002092A16D8059A44F0020402EB0C
:103A1000820203EB42021044761C0590EFE759F84E
:103A2000042B0592002A03DA504244F40054059016
:103A300044F00204761C30782E2816D116F8010FB7
:103A400044F004042A280DD06FF02F023078A0F142
:103A50003003092B09D807EB870302EB4303C71890
:103A6000761CF3E759F8047B761C30786C280FD06D
:103A700006DC4C2817D068280DD06A2814D104E041
:103A8000742810D07A280FD10DE044F400140AE015
:103A900044F4801401E044F440147278824202D16C
:103AA00004F58014761C761C307866280BD013DC65
:103AB000582877D009DC002875D04528F6D046284C
:103AC000F4D047281AD19DE118E0632835D0642846
:103AD00079D0652812D195E1702873D008DC672869
:103AE000F1D069286FD06E280DD06F2806D1B5E0CF
:103AF00073282CD0752875D0782874D05A46179919
:103B000090476D1C75E1C4F30250022809D00328C8
:103B10000DD0D9F8001004280DD00D6009F104096A
:103B200067E1D9F80010EA17C1E90052F6E7D9F8C1
:103B300000100D80F2E70D70F0E719F8041B8DF806
:103B4000001000208DF80100EA46012003E059F83A
:103B500004AB4FF0FF3061074FF0000102D40DE0DD
:103B600008F101018846B9420FDA8045F8DB1AF8FE
:103B700008100029F4D108E008F1010188468142CB
:103B8000FADB1AF808100029F6D105985B46A0EB7D
:103B9000080721463846179A00F094FA284400EBAB
:103BA000080507E04DE029E10DE01AF8010B5A463F
:103BB00017999047B8F10108F7D25B46214638467D
:103BC000179A13E142E00A220092C4F302524FF026
:103BD000000A022A08D059F804CB032A4FEAEC71F4
:103BE0000AD00DE029E02AE009F1070121F00702DF
:103BF000F2E802C1914609E00FFA8CFC4FEAEC7141
:103C0000042A03D14FFA8CFC4FEAEC71002907DA41
:103C10000A460021DCF1000C61EB02012D2202E0DA
:103C2000220504D52B228DF80420012203E0E207AF
:103C300001D02022F7E7904659E00A2102E0102245
:103C40000DE010214FF0000A00910BE010224FF020
:103C5000000A44F004040827009203E008224FF011
:103C6000000A0092C4F30252022A05D059F804CB8C
:103C70000021032A08D009E009F1070121F0070219
:103C8000F2E802C1914605E01FFA8CFC042A01D13A
:103C90000CF0FF0C4FF00008220728D5702806D042
:103CA000009B83F0100353EA0A0305D00EE0402284
:103CB0008DF80420012208E05CEA010206D03022DF
:103CC0008DF804208DF8050002229046009B83F0B9
:103CD000080353EA0A030AD15CEA010201D1620730
:103CE00005D530228DF804204FF001087F1E58289A
:103CF00004D034A003900EA802900DE036A0F9E79E
:103D000053466046009AFCF7E9FC84460398825CBF
:103D10000298401E029002705CEA0100F0D1029805
:103D200006A9081A00F1200A600702D524F480349D
:103D300000E00127574502DDA7EB0A0000E0002064
:103D400000EB0A01009005984144401A0590E003F9
:103D500006D45B462146179A059800F0B3F905444E
:103D6000002706E001A85A46C05D179990476D1CD0
:103D70007F1C4745F6DBE0030CD55B462146179ACE
:103D8000059800F09FF9054404E030205A46179941
:103D900090476D1C0099481E00900029F5DC08E052
:103DA000029802995A460078491C02911799904747
:103DB0006D1CBAF10001AAF1010AF1DC65E1000015
:103DC00009280100303132333435363738396162F1
:103DD00063646566000000003031323334353637B5
:103DE00038394142434445460000000000F058F98C
:103DF0000544761C307800287FF4ECAD19B02846D5
:103E0000BDE8F08F620700D4062709F1070222F00F
:103E1000070CFCE80223E14603F000485FEA080CC7
:103E200002D00FF2702C0DE05FEA045C02D50FF2B5
:103E3000682C07E05FEAC47C02D00FF2602C01E03E
:103E4000AFF2700C4FF0FF3823F00043CDF850C0B4
:103E500065280CD006DC452809D046281DD0472807
:103E60003DD13DE0662818D067287ED138E000219A
:103E7000112F01DB112000E0781CCDE9000106A91B
:103E80000EA8FFF7DDFCDDE90F010E9A039100217A
:103E9000009207F1010A04914DE04FF000400097B5
:103EA000CDE9011006A90EA8FFF7CAFCDDE90F0253
:103EB00003920E9B11990022DDF80CA0009304924E
:103EC00011B9791C00EB010AB7EB0A0004D4C0F168
:103ED000FF3007F1010A0490AAEB0700019044E0CB
:103EE000012F00DA01270021112F01DD112000E050
:103EF0003846CDE9000106A90EA8FFF7A1FCDDE9CF
:103F00000F010E9A0391002104910092BA462107F5
:103F10000CD40399514500DA8A46BAF1010F05DD48
:103F2000009AAAF10101515C302908D0B84202DAA6
:103F300010F1040F06DA0121CDE9011015E0AAF114
:103F40000101E9E7002805DC049901440491AAEB8A
:103F5000000102E0411C514500DD8A460499401AE7
:103F6000401C01904FF000400290200704D40198BB
:103F7000504501DBCDF8048000208DF84F000298F9
:103F80000DF14F07B0F1004F25D02B200E90029875
:103F90004FF0020800280CDA404202902D200E90CB
:103FA00007E00A210298FCF783FB3031029007F802
:103FB000011DB8F10001A8F10108F2DC0298002807
:103FC000EFD1791E0E980870307800F0200040F094
:103FD000450007F8020D12A8C01B00F1070814984D
:103FE000007800B1012000EB0A01019801EBE071BB
:103FF00005984144401A401E0590E00306D45B46F4
:104000002146179A059800F05DF805441498007849
:1040100018B15A46179990476D1CE00324D55B46AA
:104020002146179A059800F04DF805441CE00498C5
:10403000002807DBDDE90301884203DD0098405CCE
:10404000179901E0179930205A469047049805F1D6
:104050000105401C04900198401E019004D12E20BF
:104060005A46179990476D1CBAF10001AAF1010A4E
:10407000DDDC05E017F8010B5A46179990476D1CD7
:10408000B8F10001A8F10108F4DC5B462146179A5B
:104090000598ABE62D0000002B000000200000007A
:1040A0002DE9F041044600251E461746880404D435
:1040B00005E039462020B0476D1C641EF9D528461E
:1040C000BDE8F0812DE9F041044600251E469046EA
:1040D000C80301D5302700E02027880404D505E077
:1040E00041463846B0476D1C641EF9D52846BDE8E8
:1040F000F0810A68531C0B601070704710B56FF0A8
:104100000400FEF70FFE0A4800680A49B0FBF1F010
:10411000094908700846007800EB4001C1EBC01067
:104120004FF6FF7101EAC0000449088010BD00008D
:104130000000002000127A007000002072000020B1
:104140000146114A12884A434FF0E0235A61002287
:104150009A611A46126942F001021A6100BF4FF0DB
:10416000E022106900F001021AB100F48032002A46
:10417000F5D04FF0E022126922F001024FF0E02367
:104180001A6100229A617047720000200146114AAC
:1041900012784A434FF0E0235A6100229A611A468E
:1041A000126942F001021A6100BF4FF0E02210696B
:1041B00000F001021AB100F48032002AF5D04FF06D
:1041C000E022126922F001024FF0E0231A6100227E
:1041D0009A6170477000002000BF054A128802F003
:1041E0004002002AF9D0C2B2014B1B1D1A80704751
:1041F00000440040FFF782FFFCF712FCFDF7C0FC13
:10420000FCF764FEFEF708FCFCF747FEFDF7DCFF59
:104210000020FDF787FF0020FDF776FFFDF7B4FAD9
:10422000FDF711FF4FF4165000F042FD4FF4165009
:1042300000F098FD4FF4165000F0E8FDFEF7FCF991
:1042400001218807FEF7DAFD1CE0FEF7A5FBFCF76D
:10425000ADFE0D48007810B9FDF7F6FD0CE00A48F8
:104260000078012802D1FEF741FE05E006480078FB
:10427000022801D1FFF7F2F8FCF756FEFEF728FD01
:10428000FEF76CFCE1E700004E0000202DE9F04D48
:104290001D460C4698B0174621F0004123F000431C
:1042A000002814BF4FF0010C4FF0000C0CEB440C35
:1042B000FE4A0CEB02064FEA620C66452BD33E0029
:1042C00018BF012606EB45061644F94A964222D34A
:1042D000F84A53EA070C02D0944205D148B918B005
:1042E00000201146BDE8F08D002808BF4FF0000CFB
:1042F00001D04FF0010C0CEB440212F5001F0AD85C
:10430000002F14BF4FF0010C4FF0000C0CEB4502D6
:1043100012F5001F07D918B03A462B462146BDE8D2
:10432000F04DFFF75FBA0022DFF88CA3002CB8BF76
:10433000534526DADFF884C36345A8BF022220DA9A
:10434000DFF870C39C451CDCDFF874C30CEB235C06
:10435000BCF1140F08DDCCF1340627FA06FC0CFA88
:1043600006F6BE420DD108E05FB9CCF1140623FA7F
:1043700006FC0CFA06F69E4203D10CF00102C2F1D3
:10438000020251EA000C19D1002D17DA002C18BFD7
:10439000022A01D0012A07D00220FFF74BFA18B0F9
:1043A000BDE8F04DFFF716BA0220FFF743FAFFF71A
:1043B00011FA18B081F00041BDE8F08DB7F1000CA2
:1043C0006CD1534525D104F1804212F5801201BF12
:1043D00000280020B74918B008BFBDE8F08DB548E7
:1043E000884207DC002DA1BF6046294618B0BDE811
:1043F000F08D07E0281E05DA80F0004118B0604615
:10440000BDE8F08DAF497944D1E9000118B0BDE8AD
:10441000F08DDFF8A0C2634525D1002D1FDA19B158
:10442000514512D1D8B909E0002840F0EC82A24AE7
:10443000214618B062F31E01BDE8F08D0020214630
:1044400018B060F31E01BDE8F08D08DA18B02346FD
:10445000BDE8F04D024600206146FCF758B818B0A0
:104460002146BDE8F08D514518DAB5F1804F0DD0E9
:10447000A5F1005CBCF1FF5C10D1B4F1000C0DDBC8
:1044800018B06146BDE8F04D00F0ECBB234618B013
:104490000246BDE8F04D1946FBF7C7BF060024F001
:1044A000004C3BD1D9B1514533D1002C06DD002D54
:1044B000A1BF0020514618B0BDE8F08D002C01DDF1
:1044C000002D1BDB002C13DA002D11DB012A4FF02D
:1044D000000014BF78497C4918B0BDE8F08D022A6D
:1044E00018BF002C0AD0012A08D1002C06DA0AE0F5
:1044F000002CB8BF002D11DA012A04D0002018B01A
:104500000146BDE8F08D18B000204FF00041BDE835
:10451000F08DA1F14050B0F17F601AD0012000EB86
:10452000E47050EA020421D0624C521E4FF0000B9E
:10453000104304BF4FF0000B644C654883427CDDA0
:10454000644A654893421FDD884217DB002D25DB56
:1045500037E0002C00DA4AB1022A0CBF01204FF0EC
:10456000FF3018B0BDE8F04DFCF74EB80120FFF762
:1045700061F918B0BDE8F04DFFF736B94D4A8A42EF
:1045800002DC002D0ADC1CE0814202DA002D18DA80
:1045900004E0484B994220DD002D12DD0220FFF798
:1045A00049F9FFF727F905460E46002253465846BB
:1045B0002146FBF73AFF18B066F31E012846BDE816
:1045C000F08D0220FFF736F9FFF71CF90A46214665
:1045D00018B062F31E01BDE8F08D0022304661463E
:1045E000FBF71DFF80460E466FF00102FCF76CF9E9
:1045F0004FF05532394BFBF715FF42463346FBF778
:1046000014FF0022364BFBF70DFF8246424633462D
:10461000049110461946FBF708FF5246049BFBF72E
:1046200004FF8A4600904FF0C0422E4B4046314670
:10463000FBF7FBFE2C4A2B4B00E027E0CDE90601FF
:1046400051460098FBF7F1FE82460191274A284B1C
:1046500040463146FBF7E9FE5246019BFBF7DFFE81
:1046600082460B4602460591DDE90601FBF736FE60
:10467000DDE90623002688463046FBF7D0FE524689
:10468000059BFBF7CFFE024600F07EB90020B1F596
:10469000801F07DA352230466146FCF715F90646D9
:1046A0006FF0340000EB215024E00000FFFF1F00FA
:1046B000FFFF0F000000F03F0000F07F00004043CC
:1046C00001FCFFFFB62B00000000F0FF0000F0BF70
:1046D0000000E0410000F043FFFFEF3F5555D53F9C
:1046E0000000E03F4715F73FFE822B6544DF5DF891
:1046F0000BAE543EA0F2FF300190C1F3130040F026
:104700007F6141F040510291FE498842D8BF0020AC
:1047100004DDFD498142C8BF012001DD0D9008E0A4
:1047200000200D900198401C01900298A0F5801087
:1047300002900299F54878440B910D9900EBC10065
:10474000D0E900230F9330460A920B99FBF767FEDE
:10475000CDE90601DDE90A2130460F9BFBF7BEFDDE
:1047600002460B460020EA49FBF7D1FE05910246BE
:104770000B460090DDE90601FBF757FE1490E54873
:104780008A464FF0000878440299006812904FF072
:10479000005040EA61010D980F9B01EB804000F54D
:1047A000002109910A9A1298FBF739FE32460B9BB9
:1047B000FBF738FE42465346FBF737FE06460291AA
:1047C00040465146099B129AFBF72FFEDDE906236E
:1047D000FBF728FE3246029BFBF721FE059B009A61
:1047E000FBF723FE0091149A049053461046194695
:1047F000FBF71BFE06460246C7480B460291062100
:104800007844FEF791FFCDE90510029B3246104631
:104810001946FBF70AFEDDE90532FBF706FE0591B6
:104820000646534640461946149AFBF757FD009B2F
:10483000049AFBF7FAFD3246059BFBF74FFDCDE9E5
:1048400005104246534610461946FBF7EEFD00227E
:10485000B24B02910A90FBF741FDDDE90532FBF70F
:104860003DFD0E464246AD4B4046FBF7D8FD029B50
:104870000A9AFBF7D4FDDDE90532FBF7D3FD42468A
:1048800002910A90334610465146FBF7CEFDCDE922
:1048900006015346149A02990A98FBF7C6FD8A4608
:1048A00002903346424600990498FBF7BEFD5346FA
:1048B000029AFBF713FD82460B4602460591DDE99D
:1048C0000601FBF70BFDDDE90623002088460646BE
:1048D000FBF7A5FD5246059BFBF7A4FD8246099117
:1048E0004FF060428E4B30464146FBF79EFD0490F0
:1048F00006918C4A8A4B50460999FBF796FD8246F1
:104900000291894A894B30464146FBF78EFD52465B
:10491000029BFBF7E3FC864B7B440D9A03EBC2033F
:10492000D3E90023FBF7DAFC0E9007910198FBF71F
:104930006BFE0591DDE9061382460E9A0498FBF79B
:10494000CDFC7C4A7A440D9B02EBC303D3E90023E0
:1049500000930292FBF7C2FC5246059BFBF7BEFC9C
:104960000026884652463046059BFBF758FD009BC3
:10497000029AFBF754FD069B049AFBF750FD079B38
:104980000E9AFBF74FFD024600200B460290384678
:104990002946FBF74AFD824601912B4638461946C7
:1049A000029AFBF73CFD32464346FBF73EFD52467A
:1049B000019BFBF793FC07468A463246434629464D
:1049C0000298FBF732FD05460E463A465346FBF782
:1049D00085FC594A8846914221DBA8EB020353EA41
:1049E000000210D12A463346FBF719FDCDE9040138
:1049F000524A534B38465146FBF770FCDDE904231D
:104A0000FBF792FF21D20220FEF714FFFEF7F2FE21
:104A10000A46214618B062F31E01BDE8F08D494BED
:104A200028F000429A4210D3474A08EB020353EAA7
:104A300000027FF4C6AD2A463346FBF7F0FC3A4647
:104A40005346FBF771FF7FF6BCAD0022019228F0C0
:104A500000403E493E4A01EB2051824223DA481C85
:104A60004FF4801121FA00F040443A4AC0F30A5151
:104A70007A44394BA1F2FF31CB4020EA0303C0F363
:104A8000130040F48010C1F11401C8401268019075
:104A9000B8F1000FBCBF4042019028463146FBF7F9
:104AA000BEFC05460E462A46334638465146FBF7BD
:104AB00015FC4FF000084246284B40460591FBF795
:104AC000B4FCCDE90601264A264B40460599FBF782
:104AD000ACFC009102902A46334640460599FBF70C
:104AE0009EFC3A465346FBF79DFC1F4A1F4BFBF7C3
:104AF0009CFC009B029AFBF7F1FB074688460246A6
:104B00000B4635E08E9803007AB60B00FE270000B6
:104B10000000F03F36280000642700000000084035
:104B200009C7EE3FFD033ADCF5015B14E02F3EBE02
:104B30003C2600000026000000009040FE822B650D
:104B40004715973C00CC904000346F3F01FCFFFFBD
:104B50000000E03F4C250000FFFF0F00432EE63F22
:104B6000396CA80C615C20BEEF39FAFE422EE63F9C
:104B7000DDE90601FBF7B2FBDDE9062305460E463B
:104B8000FBF74DFC3A464346FBF74CFC0F462A46E2
:104B90003346009010461946FBF747FC8246024612
:104BA0002E4888460B4605217844FEF7BDFD524647
:104BB0004346FBF73AFC2A463346FBF733FC804674
:104BC0008A463B4628463146009AFBF72EFC3B4678
:104BD000009AFBF783FB0691009000224FF0804380
:104BE00040465146FBF71BFC0F460C90424653468D
:104BF00028463146FBF719FC3B460C9AFBF787FC2D
:104C0000069B009AFBF70BFC2A463346FBF707FC92
:104C10000022134BFBF706FC054601980E4601EBFC
:104C200000510815002810DC28463146019AFBF790
:104C30004BFEFEF765FD042808BFFEF7E3FD28469E
:104C40003146019AFBF740FE05460B4618B02A464E
:104C500058462146BDE8F04DFBF7E7BBEC230000CA
:104C60000000F03F2DE9F04106460F46FBF786FEB7
:104C7000041E0D4618BF0120284320F00040C0F15B
:104C80007F6000F1E040C00F0ED0301C18BF012043
:104C9000384320F00040C0F17F6000F1E040C00FD9
:104CA00004BF0120FEF7C6FD20462946BDE8F0817D
:104CB00010B586B00446012144F20400FDF78EFDD4
:104CC0002648FEF7B5FA4FF40070ADF81400032043
:104CD0008DF8160018208DF8170005A92048FCF75C
:104CE0002BFE4FF48060ADF8140048208DF81700BB
:104CF00005A91B48FCF720FE25208DF800000220A6
:104D00008DF8010001208DF802008DF8030068463F
:104D1000FDF7A0F901940020ADF80800ADF80A00F5
:104D2000ADF80C00ADF810000C20ADF80E0001A994
:104D30000A48FEF71BFB012240F224410748FEF718
:104D4000EFFA012240F225510448FEF7E9FA012169
:104D50000248FEF760FA06B010BD000000380140BE
:104D60000008014010B586B0044601210420FDF77B
:104D700035FD01214804FDF711FD2248FEF758FAE0
:104D80000420ADF8140003208DF8160018208DF8CB
:104D9000170005A91C48FCF7CFFD0820ADF814004A
:104DA00004208DF8170005A91748FCF7C5FD26203B
:104DB0008DF8000002208DF8010001208DF802001E
:104DC0008DF803006846FDF745F901940020ADF821
:104DD0000800ADF80A00ADF80C00ADF810000C208A
:104DE000ADF80E0001A90748FEF7C0FA012240F213
:104DF00025510448FEF794FA01210248FEF70BFA08
:104E000006B010BD004400400008014010B586B057
:104E1000044601210820FDF7E1FC01218804FDF78B
:104E2000BDFC01210846FDF7A9FC2448FEF700FA65
:104E30004FF48060ADF8140003208DF816001820A0
:104E40008DF8170005A91E48FCF776FD4FF40060A9
:104E5000ADF8140004208DF8170005A91848FCF7D8
:104E60006BFD27208DF8000002208DF80100032043
:104E70008DF8020001208DF803006846FDF7EAF87E
:104E800001940020ADF80800ADF80A00ADF80C0060
:104E9000ADF810000C20ADF80E0001A90748FEF790
:104EA00065FA012240F225510448FEF739FA012142
:104EB0000248FEF7B0F906B010BD000000480040FF
:104EC000000C01400000000000000000002F000066
:104ED00000000700070000147F147F1400242A7FBD
:104EE0002A1200626408132300364955225000003C
:104EF0000503000000001C224100000041221C00AC
:104F00000014083E08140008083E0808000000A02D
:104F10006000000808080808000060600000002029
:104F200010080402003E5149453E0000427F400007
:104F3000004261514946002141454B31001814128D
:104F40007F10002745454539003C4A49493000015A
:104F50007109050300364949493600064949291EA9
:104F6000000036360000000056360000000814220B
:104F7000410000141414141400004122140800020B
:104F80000151090600324959513E007C1211127C30
:104F9000007F49494936003E41414122007F41415D
:104FA000221C007F49494941007F09090901003E4F
:104FB0004149497A007F0808087F0000417F41008D
:104FC000002040413F01007F08142241007F404003
:104FD0004040007F020C027F007F0408107F003EEB
:104FE0004141413E007F09090906003E4151215ED1
:104FF000007F091929460046494949310001017FCE
:105000000101003F4040403F001F2040201F003F63
:105010004038403F00631408146300070870080715
:1050200000615149454300007F41410000552A5528
:105030002A55000041417F000004020102040040A3
:1050400040404040000001020400002054545478C5
:10505000007F4844443800384444442000384444E5
:10506000487F00385454541800087E090102001883
:10507000A4A4A47C007F080404780000447D4000C0
:10508000004080847D00007F102844000000417FA4
:105090004000007C04180478007C08040478003880
:1050A0004444443800FC242424180018242418FC08
:1050B000007C0804040800485454542000043F4471
:1050C0004020003C4040207C001C2040201C003C34
:1050D0004030403C004428102844001CA0A0A07C84
:1050E000004464544C4414141414141400000000BC
:1050F00000000000000000000000FC0000000000B4
:1051000002000000000C020C020000000000000081
:1051100090D0BCD0BC900003000300001824FE44D3
:105120008C000302070201001824D8B04C80000351
:1051300000010201C038E438E0000102020102026D
:10514000080600000000000000000000000000F859
:105150000402000000010204000204F80000000440
:10516000020100009060F860900000000100000063
:105170002020FC20200000000100000000000000B2
:105180000000080600000000202020202000000071
:10519000000000000000000000000002000000000D
:1051A0000080601C0200040300000000F8040404F6
:1051B000F8000102020201000008FC0000000002E9
:1051C00003020000188444241800030202020200B3
:1051D00008042424D80001020202010040B088FC27
:1051E00080000000000302003C242424C4000102CB
:1051F00002020100F824242CC00001020202010076
:105200000C04E41C0400000003000000D824242443
:10521000D80001020202010038444444F8000003AF
:105220000202010000001000000000000200000067
:105230000000200000000000060000000020508850
:105240000402000000000102909090909000000085
:10525000000000000002048850200002010000004D
:105260001804C4241800000002000000F804E494AC
:10527000F80001020202020000E09CF0800002033C
:105280000000030204FC2424D800020302020100EF
:10529000F80404040C0001020202010004FC0404EE
:1052A000F80002030202010004FC24740C00020353
:1052B0000202030004FC24740C000203020000003C
:1052C000F0080444CC4000010202010004FC20204C
:1052D000FC040203000003020404FC0404000202B4
:1052E00003020200000404FC04040604040300009A
:1052F00004FC24D00C0402030200030204FC04009A
:105300000000020302020203FC3CC03CFC0003005C
:105310000300030004FC30C4FC0402030200030089
:10532000F8040404F80001020202010004FC242431
:105330001800020302000000F8848404F80001024F
:105340000207050004FC2464980002030200030223
:10535000182424448C000302020201000C04FC0403
:105360000C0000020302000004FC0000FC04000129
:1053700002020100047C80E01C0400000300000025
:105380001CE03CE01C00000300030000049C609C47
:105390000400020300030200041CE01C04000002DD
:1053A000030200000C84641C0400020302020300D8
:1053B0000000FE020200000007040400000E30C0DE
:1053C0000000000000010200000202FE00000004D4
:1053D00004070000000402040000000000000000B8
:1053E000000000000000080808080808000002008B
:1053F00000000000000000000040A0A0C00000016C
:105400000202030204FC2020C0000003020201008B
:1054100000C02020600000010202020000C0202421
:10542000FC0000010202030200C0A0A0C0000001B5
:10543000020202000020F8242404000203020200F9
:105440000040A0A0602000070A0A0A0404FC2020F3
:10545000C0000203020003020020E400000000027A
:1054600003020000000020E4000008080807000014
:1054700004FC80E020200203020003020404FC007C
:105480000000020203020200E020E020C00003004E
:105490000300030020E02020C000020302000302FA
:1054A00000C02020C00000010202010020E02020F6
:1054B000C000080F0A02010000C02020E000000127
:1054C000020A0F0820E04020200002030200000032
:1054D0000060A0A020000002020203000020F820CB
:1054E000000000000102020020E00020E0000001B6
:1054F0000202030220E0208060200000030100007F
:105500006080E08060000003000300002060806095
:10551000200002030003020020E020806020080831
:10552000070100000020A06020000002030202002A
:10553000000020DE0200000000070400000000FF61
:1055400000000000000F00000002DE200000000448
:105550000700000002010204040200000000000035
:10556000000000000000000000000000000000003B
:10557000000000F8000000000000003330000000D0
:1055800000100C06100C06000000000000000000D7
:1055900040C07840C0784000043F04043F04040049
:1055A000007088FC08300000001820FF211E000059
:1055B000F008F000E018000000211C031E211E006E
:1055C00000F00888700000001E21232419272110F4
:1055D00010160E0000000000000000000000000097
:1055E000000000E01804020000000007182040003E
:1055F00000020418E000000000402018070000002E
:10560000404080F0804040000202010F0102020091
:10561000000000F0000000000101011F0101010075
:10562000000000000000000080B0700000000000DA
:105630000000000000000000000101010101010163
:1056400000000000000000000030300000000000FA
:1056500000000000806018040060180601000000CF
:1056600000E010080810E000000F102020100F00CC
:10567000001010F8000000000020203F2020000053
:1056800000700808088870000030282422213000AB
:1056900000300888884830000018202020110E00B3
:1056A0000000C02010F8000000070424243F24005C
:1056B00000F80888880808000019212020110E0031
:1056C00000E0108888180000000F112020110E0043
:1056D00000380808C83808000000003F000000003B
:1056E0000070880808887000001C222121221C00FC
:1056F00000E010080810E0000000312222110F0025
:10570000000000C0C00000000000003030000000B9
:105710000000008000000000000080600000000029
:105720000000804020100800000102040810200042
:10573000404040404040400004040404040404008D
:105740000008102040800000002010080402010022
:10575000007048080808F000000000303601000022
:10576000C030C828E810E0000718272423140B00D5
:105770000000C038E0000000203C2302022738204F
:1057800008F8888888700000203F202020110E0033
:10579000C03008080808380007182020201008002A
:1057A00008F808080810E000203F202020100F0013
:1057B00008F88888E8081000203F202023201800DF
:1057C00008F88888E8081000203F20000300000047
:1057D000C03008080838000007182020221E0200E8
:1057E00008F808000008F808203F210101213F20A7
:1057F000000808F8080800000020203F20200000D2
:1058000000000808F8080800C08080807F000000C1
:1058100008F888C028180800203F200126382000FA
:1058200008F8080000000000203F20202020300061
:1058300008F8F800F8F80800203F003F003F20007B
:1058400008F830C00008F808203F200007183F0083
:10585000E01008080810E0000F10202020100F00B2
:1058600008F808080808F000203F210101010000A5
:10587000E01008080810E0000F18242438504F00EA
:1058800008F8888888887000203F2000030C3020AA
:1058900000708808080838000038202121221C00E8
:1058A000180808F8080818000000203F2000000031
:1058B00008F808000008F808001F202020201F001A
:1058C0000878880000C83808000007380E0100007A
:1058D000F80800F80008F800033C0700073C030044
:1058E000081868808068180820302C03032C3020AA
:1058F0000838C800C83808000000203F2000000019
:1059000010080808C8380800203826212020180070
:10591000000000FE020202000000007F4040400044
:10592000000C30C000000000000000010638C0007C
:1059300000020202FE000000004040407F00000024
:105940000000040202020400000000000000000049
:105950000000000000000000808080808080808047
:10596000000202040000000000000000000000002F
:1059700000008080808000000019242222223F2025
:1059800008F8008080000000003F112020110E0068
:105990000000008080800000000E112020201100F7
:1059A000000000808088F800000E112020103F20A9
:1059B0000000808080800000001F2222222213002D
:1059C000008080F0888888180020203F2020000078
:1059D0000000808080808000006B9494949360002D
:1059E00008F8008080800000203F210000203F2038
:1059F00000809898000000000020203F2020000038
:105A0000000000809898000000C08080807F000027
:105A100008F8000080808000203F24022D30200004
:105A2000000808F8000000000020203F20200000AF
:105A30008080808080808000203F20003F20003FC9
:105A40008080008080800000203F210000203F20D7
:105A50000000808080800000001F202020201F0088
:105A6000808000808000000080FFA12020110E00B7
:105A70000000008080808000000E112020A0FF80A8
:105A8000808080008080800020203F212000010055
:105A900000008080808080000033242424241900AA
:105AA000008080E0808000000000001F20200000B7
:105AB0008080000000808000001F202020103F20F8
:105AC000808080000080808000010E300806010088
:105AD00080800080008080800F300C030C300F002D
